:020000040800F2
:1000000000000220AD540008955300089D530008DD
:10001000A5530008AD530008B553000800000000C8
:1000200000000000000000000000000001CB0008FC
:10003000BD5300080000000051CD0008CB5300085C
:10004000FD540008FD540008FD540008FD5400084C
:10005000FD540008FD540008FD540008FD5400083C
:10006000FD540008FD540008FD540008FD5400082C
:10007000FD540008FD540008FD540008FD5400081C
:10008000FD540008FD540008FD540008FD5400080C
:10009000FD540008FD540008FD540008E553000815
:1000A000FD540008FD540008FD540008FD540008EC
:1000B000FD540008FD540008F5530008FD540008E5
:1000C000FD540008FD540008FD540008FD540008CC
:1000D000FD540008FD540008FD54000809540008B0
:1000E000FD540008FD540008FD540008FD540008AC
:1000F000FD540008FD540008FD540008FD5400089C
:10010000FD540008FD540008FD540008FD5400088B
:10011000FD540008FD540008FD540008FD5400087B
:10012000FD540008FD540008FD540008FD5400086B
:10013000FD540008FD540008FD540008FD5400085B
:10014000FD540008FD540008FD540008FD5400084B
:10015000FD540008FD540008FD540008FD5400083B
:10016000FD540008FD540008FD540008FD5400082B
:10017000FD540008FD540008FD5400080000000074
:08018000FD540008FD540008C5
:1001900010B5054C237833B9044B13B10448AFF3C1
:1001A00000800123237010BD7800002000000000B3
:1001B000C8DC000808B5034B1BB103490348AFF383
:1001C000008008BD000000007C000020C8DC0008A2
:1001D00010F8012B11F8013B012A28BF9A42F7D0F1
:1001E000D01A70470000000000000000000000006E
:1001F00001F0FF01102A2BDB10F0070F08D010F8D8
:10020000013B013A8B422DD010F0070F42B3F6D1DB
:10021000F0B441EA012141EA014122F007047FF0F4
:1002200000070023F0E80256083C85EA010586EA4B
:10023000010685FA47F5A3FA87F586FA47F6A5FA87
:1002400087F68EB9EED1F0BC01F0FF0102F0070293
:1002500032B110F8013B013A83EA010313B1F8D13E
:100260000020704701387047002D06BF354603381F
:10027000073815F0010F07D1013015F4807F02BF58
:10028000013015F4C03F0130F0BC0138704700BFA9
:1002900081F0004102E000BF83F0004330B54FEA37
:1002A00041044FEA430594EA050F08BF90EA020FA4
:1002B0001FBF54EA000C55EA020C7FEA645C7FEA37
:1002C000655C00F0E2804FEA5454D4EB5555B8BF5A
:1002D0006D420CDD2C4480EA020281EA030382EACB
:1002E000000083EA010180EA020281EA0303362D5D
:1002F00088BF30BD11F0004F4FEA01314FF4801C30
:100300004CEA113102D0404261EB410113F0004F41
:100310004FEA03334CEA133302D0524263EB4303F8
:1003200094EA050F00F0A780A4F10104D5F1200E96
:100330000DDB02FA0EFC22FA05F2801841F10001F1
:1003400003FA0EF2801843FA05F359410EE0A5F1C5
:1003500020050EF1200E012A03FA0EFC28BF4CF0F6
:10036000020C43FA05F3C01851EBE37101F00045AC
:1003700007D54FF0000EDCF1000C7EEB00006EEBB9
:100380000101B1F5801F1BD3B1F5001F0CD3490843
:100390005FEA30004FEA3C0C04F101044FEA44529A
:1003A00012F5800F80F09A80BCF1004F08BF5FEA21
:1003B000500C50F1000041EB045141EA050130BD01
:1003C0005FEA4C0C404141EB0101013C28BFB1F513
:1003D000801FE9D291F0000F04BF01460020B1FA5E
:1003E00081F308BF2033A3F10B03B3F120020CDA31
:1003F0000C3208DD02F1140CC2F10C0201FA0CF00F
:1004000021FA02F10CE002F11402D8BFC2F1200C73
:1004100001FA02F120FA0CFCDCBF41EA0C01904029
:10042000E41AA2BF01EB0451294330BD6FEA040472
:100430001F3C1CDA0C340EDC04F11404C4F120025D
:1004400020FA04F001FA02F340EA030021FA04F36F
:1004500045EA030130BDC4F10C04C4F1200220FAC6
:1004600002F001FA04F340EA0300294630BD21FA04
:1004700004F0294630BD94F0000F83F4801306BFCA
:1004800081F480110134013D4EE77FEA645C18BFBE
:100490007FEA655C29D094EA050F08BF90EA020F55
:1004A00005D054EA000C04BF1946104630BD91EA4D
:1004B000030F1EBF0021002030BD5FEA545C05D150
:1004C0004000494128BF41F0004130BD14F580048F
:1004D0003CBF01F5801130BD01F0004545F0FE4103
:1004E00041F470014FF0000030BD7FEA645C1ABF38
:1004F000194610467FEA655C1CBF0B46024650EA6F
:10050000013406BF52EA033591EA030F41F400219A
:1005100030BD00BF90F0000F04BF0021704730B520
:100520004FF4806404F132044FF000054FF00001F5
:1005300050E700BF90F0000F04BF0021704730B5B6
:100540004FF4806404F1320410F0004548BF40428B
:100550004FF000013EE700BF42004FEAE2014FEAE0
:1005600031014FEA02701FBF12F07F4393F07F4FBB
:1005700081F06051704732F07F4208BF704793F0BE
:100580007F4F04BF41F40021704730B54FF46074D1
:1005900001F0004521F000411CE700BF50EA0102D4
:1005A00008BF704730B54FF000050AE050EA01027D
:1005B00008BF704730B511F0004502D5404261EBED
:1005C00041014FF4806404F132045FEA915C3FF42E
:1005D000D8AE4FF003025FEADC0C18BF03325FEACB
:1005E000DC0C18BF033202EBDC02C2F1200300FA7C
:1005F00003FC20FA02F001FA03FE40EA0E0021FAA1
:1006000002F11444BDE600BF70B54FF0FF0C4CF48E
:10061000E06C1CEA11541DBF1CEA135594EA0C0F40
:1006200095EA0C0F00F0DEF82C4481EA030621EA7B
:100630004C5123EA4C5350EA013518BF52EA0335B6
:1006400041F4801143F4801338D0A0FB02CE4FF068
:100650000005E1FB02E506F00042E0FB03E54FF098
:100660000006E1FB03569CF0000F18BF4EF0010E90
:10067000A4F1FF04B6F5007F64F5407404D25FEA8C
:100680004E0E6D4146EB060642EAC62141EA55513F
:100690004FEAC52040EA5E504FEACE2EB4F1FD0C81
:1006A00088BFBCF5E06F1ED8BEF1004F08BF5FEAFF
:1006B000500E50F1000041EB045170BD06F00046B1
:1006C00046EA010140EA020081EA0301B4EB5C045E
:1006D000C2BFD4EB0C0541EA045170BD41F4801156
:1006E0004FF0000E013C00F3AB8014F1360FDEBF7B
:1006F000002001F0004170BDC4F10004203C35DA57
:100700000C341BDC04F11404C4F1200500FA05F3D9
:1007100020FA04F001FA05F240EA020001F000427A
:1007200021F0004110EBD37021FA04F642EB0601F0
:100730005EEA430E08BF20EAD37070BDC4F10C041A
:10074000C4F1200500FA04F320FA05F001FA04F2DE
:1007500040EA020001F0004110EBD37041F10001CA
:100760005EEA430E08BF20EAD37070BDC4F12005D5
:1007700000FA05F24EEA020E20FA04F301FA05F23D
:1007800043EA020321FA04F001F0004121FA04F2E5
:1007900020EA020000EBD3705EEA430E08BF20EAB5
:1007A000D37070BD94F0000F0FD101F000464000EF
:1007B00041EB010111F4801F08BF013CF7D041EA71
:1007C000060195F0000F18BF704703F00046520075
:1007D00043EB030313F4801F08BF013DF7D043EA46
:1007E0000603704794EA0C0F0CEA135518BF95EAFC
:1007F0000C0F0CD050EA410618BF52EA4306D1D183
:1008000081EA030101F000414FF0000070BD50EAA1
:10081000410606BF1046194652EA430619D094EA2B
:100820000C0F02D150EA013613D195EA0C0F05D115
:1008300052EA03361CBF104619460AD181EA030169
:1008400001F0004141F0FE4141F470014FF0000021
:1008500070BD41F0FE4141F4780170BD70B54FF0BC
:10086000FF0C4CF4E06C1CEA11541DBF1CEA13553C
:1008700094EA0C0F95EA0C0F00F0A7F8A4EB05041E
:1008800081EA030E52EA03354FEA013100F0888015
:100890004FEA03334FF0805545EA131343EA1263DE
:1008A0004FEA022245EA111545EA10654FEA002693
:1008B0000EF000419D4208BF964244F1FD0404F54C
:1008C000407402D25B084FEA3202B61A65EB0305A8
:1008D0005B084FEA32024FF480104FF4002CB6EB65
:1008E000020E75EB030E22BFB61A754640EA0C00E5
:1008F0005B084FEA3202B6EB020E75EB030E22BF25
:10090000B61A754640EA5C005B084FEA3202B6EB65
:10091000020E75EB030E22BFB61A754640EA9C0024
:100920005B084FEA3202B6EB020E75EB030E22BFF4
:10093000B61A754640EADC0055EA060E18D04FEAB2
:10094000051545EA16754FEA06164FEAC30343EA52
:1009500052734FEAC2025FEA1C1CC0D111F4801F1F
:100960000BD141EA00014FF000004FF0004CB6E718
:1009700011F4801F04BF01430020B4F1FD0C88BFB7
:10098000BCF5E06F3FF6AFAEB5EB030C04BFB6EBC2
:10099000020C5FEA500C50F1000041EB045170BDB5
:1009A0000EF0004E4EEA113114EB5C04C2BFD4EBE2
:1009B0000C0541EA045170BD41F480114FF0000E66
:1009C000013C90E645EA060E8DE60CEA135594EAE2
:1009D0000C0F08BF95EA0C0F3FF43BAF94EA0C0FE5
:1009E0000AD150EA01347FF434AF95EA0C0F7FF45A
:1009F00025AF104619462CE795EA0C0F06D152EAAE
:100A000003353FF4FDAE1046194622E750EA410691
:100A100018BF52EA43067FF4C5AE50EA41047FF4A2
:100A20000DAF52EA43057FF4EBAE12E74FF0FF3C07
:100A300006E000BF4FF0010C02E000BF4FF0010CD8
:100A40004DF804CD4FEA410C7FEA6C5C4FEA430C51
:100A500018BF7FEA6C5C1BD001B050EA410C0CBFA0
:100A600052EA430C91EA030F02BF90EA020F002002
:100A7000704710F1000F91EA030F58BF994208BF69
:100A800090422CBFD8176FEAE37040F00100704726
:100A90004FEA410C7FEA6C5C02D150EA013C07D17D
:100AA0004FEA430C7FEA6C5CD6D152EA033CD3D0C8
:100AB0005DF8040B704700BF8446104662468C46C2
:100AC0001946634600E000BF01B5FFF7B7FF0028F5
:100AD00048BF10F1000F01BD4DF808EDFFF7F4FF1E
:100AE0000CBF012000205DF808FB00BF4DF808EDA9
:100AF000FFF7EAFF34BF012000205DF808FB00BFCC
:100B00004DF808EDFFF7E0FF94BF012000205DF8ED
:100B100008FB00BF4DF808EDFFF7CEFF94BF0120A2
:100B200000205DF808FB00BF4DF808EDFFF7C4FF9B
:100B300034BF012000205DF808FB00BF4FEA4102EE
:100B400012F5001215D211D56FF47873B3EB62521F
:100B500012D94FEAC12343F0004343EA505311F046
:100B6000004F23FA02F018BF404270474FF00000D8
:100B7000704750EA013005D111F0004008BF6FF016
:100B8000004070474FF00000704700BF4A0011D28C
:100B900012F5001211D20DD56FF47873B3EB6252D7
:100BA0000ED44FEAC12343F0004343EA505323FAE3
:100BB00002F070474FF00000704750EA013002D158
:100BC0004FF0FF3070474FF0000070474FEA41028E
:100BD000B2F1E04324BFB3F5001CDCF1FE5C0DD99B
:100BE00001F0004C4FEAC0024CEA5070B2F1004FE5
:100BF00040EB830008BF20F00100704711F0804FE8
:100C000021D113F13872BCBF01F00040704741F4AC
:100C100080114FEA5252C2F11802C2F1200C10FAB0
:100C20000CF320FA02F018BF40F001004FEAC12394
:100C30004FEAD32303FA0CFC40EA0C0023FA02F338
:100C40004FEA4303CCE77FEA625307D150EA01330E
:100C50001EBF4FF0FE4040F44000704701F00040DE
:100C600040F0FE4040F40000704700BF53B94AB95D
:100C7000002908BF00281CBF4FF0FF314FF0FF30A4
:100C800000F06AB9ADF1080C6DE904CE00F006F889
:100C9000DDF804E0DDE9022304B070472DE9F047F8
:100CA000089D0C46002B4ED194468C458646B2FAE0
:100CB00082F262D94AB1C2F12003914020FA03F3D3
:100CC0000CFA02FC194300FA02FE4FEA1C471FFA15
:100CD0008CF6B1FBF7F44FEA1E4307FB141143EA0D
:100CE000014304FB06F199420AD91CEB030304F10A
:100CF000FF3080F01281994240F20F81023C634440
:100D0000591A1FFA8EF3B1FBF7F007FB101143EAF3
:100D1000014300FB06F69E420AD91CEB030300F1D7
:100D2000FF3180F0FC809E4240F2F980634402383B
:100D30009B1B40EA044000211DB1D3400022C5E9BD
:100D40000032BDE8F0878B4205D90DB1C5E900013D
:100D500000210846F5E7B3FA83F1002946D1A34202
:100D600002D39042C0F0F080861A64EB03030120A6
:100D7000002DE6D0C5E90063E3E7002A40F090804B
:100D8000A1EB0C044FEA1C481FFA8CF70121B4FBBD
:100D9000F8F64FEA1E4308FB164443EA044307FBF8
:100DA00006F0984208D91CEB030306F1FF3402D287
:100DB000984200F2CD8026461C1A1FFA8EF3B4FB2F
:100DC000F8F008FB104443EA044300FB07F79F4296
:100DD00008D91CEB030300F1FF3402D29F4200F25A
:100DE000B0802046DB1B40EA0640A5E7C1F12006A3
:100DF0008B4022FA06F71F4320FA06FC04FA01F39F
:100E000043EA0C03F44000FA01F8380C4FEA1349A6
:100E1000B4FBF0FE1FFA87FC00FB1E4449EA0444C1
:100E20000EFB0CF9A14502FA01F20AD93C190EF1A8
:100E3000FF3A80F08480A14540F28180AEF1020E3D
:100E40003C44A4EB09041FFA83F9B4FBF0F300FB64
:100E5000134449EA044403FB0CFCA44507D93C199C
:100E600003F1FF3067D2A44565D9023B3C4443EA15
:100E70000E40A0FB0293A4EB0C049C42CE469C4681
:100E800051D34ED055B1B8EB0E0364EB0C0404FA09
:100E900006F6CB401E43CC40C5E90064002150E774
:100EA000C2F1200320FA03F10CFA02FC24FA03F346
:100EB00094400C434FEA1C4800FA02FE1FFA8CF7DC
:100EC000B3FBF8F008FB1031230C43EA014300FBAD
:100ED00007F1994208D91CEB030300F1FF362CD22D
:100EE00099422AD9023863445B1AA4B2B3FBF8F1E1
:100EF00008FB113344EA034401FB07F3A34208D97A
:100F00001CEB040401F1FF3613D2A34211D90239BC
:100F10006444E41A41EA004139E70446F0E6084631
:100F200006E7C845AED2B9EB020E63EB070C0138F9
:100F3000A8E73146EDE7034699E73046D4E7D646C1
:100F40007FE7634402384DE70646234608460FE72D
:100F5000023E634430E700BF704700BF80B582B0F7
:100F600000AF78607B68012B07D14FF6FF73042236
:100F70000F49104808F034FB15E07B68B3F1FF3FE0
:100F800007D14FF6FF7303220B490A4808F028FBEC
:100F900009E07B68022B06D14FF6FF730722074951
:100FA000044808F01DFB00BF0837BD4680BD00BFE8
:100FB0006CDD0008EC02002074DD00081C04002039
:100FC00080B582B000AF0346FB80FB88B3F5807F1D
:100FD00010D10A4B93F90030002B08D14FF48061F7
:100FE000074805F0DEF8054B01221A7002E0034BBA
:100FF00000221A7000BF0837BD4680BD6D04002076
:10100000001002400000000080B588B000AF78609A
:101010000023FB61604806F033F97B681B685F4A78
:10102000934240F0AC807B681B7F012B40F0A7808F
:101030005B4B1B78002B1AD10021786807F0ECFC81
:101040000346584A1360564B01221A707B681B688E
:101050001A6A7B681B6822F00A021A627B681B68A6
:101060001A6A7B681B6842F002021A6277E04C4BF6
:101070001B78012B73D10021786807F0CDFC034663
:10108000494A13607B681B6800225A62464B1A6803
:10109000444B1B689A4207D9434B1A68414B1B6863
:1010A000D31A424A13600FE03E4B1A683E4B1B684E
:1010B0009A4209D93C4B1A683A4B1B68D31A03F57C
:1010C0007F43FE33394A1360384B1B681846FFF7DD
:1010D00021FA2DA3D3E90023FFF796FA02460B4627
:1010E000104619464FF000024FF08043FFF7B6FB61
:1010F00002460B461046194625A3D3E90023FFF705
:1011000083FA02460B4610461946FFF73FFD034699
:10111000DAB2274B1A70224B00221A707B681B68C8
:101120001A6A7B681B6822F00A021A627B681A68D6
:101130007B681B68126A1A621E4B1B68DA681D4BBB
:101140001B6822F00202DA60FB69002B07D01A4B01
:101150004FF080521A60BFF34F8FBFF36F8F144B65
:101160001B781A4607F10803144918460CF0A4F836
:1011700007F108031A460A210A2003F0A3FD00BF65
:101180002037BD4680BD00BF9CC420B07268A13F1F
:101190009A99999999991340780100200008004084
:1011A0006C04002060040020640400206804002017
:1011B000140000201402002004ED00E078DD000897
:1011C00080B483B000AF0346FB80094B1B6800224C
:1011D0005A6200BF064B1B685A6AFB889A42F9D3D1
:1011E00000BF00BF0C37BD465DF8047B704700BFF1
:1011F0001402002080B500AF012220210A4804F02B
:10120000B7FF0A20FFF7DCFF00222021064804F088
:10121000AFFF064B1B68DA68044B1B6842F0020202
:10122000DA6000BF80BD00BF00040240140200204D
:1012300080B584B002AF03463960FB710E4AFB797A
:1012400013700E4B1B785B0099B20A2300930123A5
:10125000094A0B4805F01CF9084B1B785B0099B252
:101260001423009302233A68054805F00FFA00BFE3
:101270000837BD4680BD00BFDC0300200000002011
:101280002401002080B584B002AF03460A46FB71FA
:101290001346BB710A4AFB791370094ABB79537034
:1012A000084B1B785B0099B2142300930223044A75
:1012B000054805F0EDF800BF0837BD4680BD00BF0A
:1012C000DC030020000000202401002080B500AFD6
:1012D00000210620FFF7D6FF0A2009F097FA8021A7
:1012E0000320FFF7CFFF0A2009F090FA072107201B
:1012F000FFF7C8FF0A2009F089FA01210620FFF74D
:10130000C1FF0A2009F082FA20217F20FFF7BAFFEF
:101310000A2009F07BFA2F210120FFF7B3FF0A20F2
:1013200009F074FA00210020FFF7ACFF0A2009F051
:101330006DFA00217F20FFF7A5FF0A2009F066FA69
:1013400000210720FFF79EFF0A2009F05FFA00BF87
:1013500080BD000080B500AF0021084806F0C8FC41
:101360000421064806F0C4FC0C21044806F0C0FC29
:101370000C21034806F0BCFC00BF80BDA402002085
:101380008401002080B500AF002208210A4804F043
:10139000EFFE00224FF40061084804F0E9FE01224C
:1013A0004FF40041054804F0E3FE01220421024805
:1013B00004F0DEFE00BF80BD0000024000040240D9
:1013C00080B500AF002204210A4804F0D1FE0022BB
:1013D0004FF40041084804F0CBFE012208210548E3
:1013E00004F0C6FE01224FF40061034804F0C0FE81
:1013F00000BF80BD000002400004024080B500AF85
:10140000002204210A4804F0B3FE00224FF40041F8
:10141000084804F0ADFE00220821054804F0A8FEAB
:1014200000224FF40061034804F0A2FE00BF80BD1B
:10143000000002400004024080B400AF144B0022C0
:101440001A60144B00221A60134B00221A60134BCF
:1014500000221A60124B00221A60124B00221A60FE
:1014600011494FF000024FF00003C1E900230F4B78
:1014700000221A700E4B1B6800225A620D4B1B682B
:1014800000225A6200BFBD465DF8047B704700BF72
:10149000400400204C04002044040020500400209C
:1014A0003804002034040020F00300206E040020E3
:1014B000CC0100205C02002080B400AF0A4B012266
:1014C0001A600A4B01221A60094B00221A7009495E
:1014D0004FF000024FF00003C1E9002300BFBD46FA
:1014E0005DF8047B704700BF100000200C00002056
:1014F0006E040020F003002080B400AF0A4B4FF0D0
:10150000FF321A60094B01221A60094B00221A703F
:1015100008494FF000024FF00003C1E9002300BF6B
:10152000BD465DF8047B7047100000200C000020D1
:101530006E040020F003002080B584B000AF786016
:101540007868FEF7F7FF4FF000020F4BFFF786F9C0
:1015500002460B461046194609A3D3E90023FFF7BC
:1015600053F802460B46C7E90223D7E90201FFF709
:10157000E5FA034618461037BD4680BDAFF300803C
:10158000D7A3703D0AEB69400060984080B58AB0EF
:1015900000AF00233B620023FB614FF08043BB613F
:1015A0004E4B7B614E4B3B610023FB604D4B1B68F8
:1015B0005B6A002BB8BF5B4207EE903AF8EEE77A21
:1015C000C7ED027A484B93ED007AD7ED027A77EEB9
:1015D000677AF5EEC07AF1EE10FA7ADD03F0F6FFE5
:1015E00003467B60414B1B687A68D31AFB603F4A15
:1015F0007B6813603C4B93ED007AD7ED027A77EE6F
:10160000677AFDEEE77A17EE903A3B62384B1B683B
:101610003A6AD21AFB6892FBF3F3FB61344A3B6AE5
:1016200013603B6AFA6803FB02F2324B1B681344F7
:10163000304A13602F4B1B682F4A934203DD2D4B1A
:101640002D4A1A6007E02B4B1B682C4A934202DAA2
:10165000284B2A4A1A603B6A07EE903AB8EEE77ABE
:10166000D7ED067A27EE277AFB6907EE903AF8EE77
:10167000E76AD7ED047A66EEA77A37EE277A1D4B34
:101680001B6807EE903AF8EEE76AD7ED057A66EE4A
:10169000A77A77EE277A9FED1A7A77EE877AFDEEB2
:1016A000E77A17EE903A7B62164B1B687A6A9A4289
:1016B00003DD144B1B687B6209E0124B1B685B4225
:1016C0007A6A9A4203DA0F4B1B685B427B627B6A41
:1016D00000E0002318462837BD4680BD6F12833ACC
:1016E00000000C42CC010020540400203C040020E7
:1016F000400400204404002040420F00C0BDF0FF21
:101700000000DC420400002080B58AB000AF002356
:101710003B620023FB614FF08043BB61644B7B6104
:10172000644B3B610023FB60634B1B685B6A002BCF
:10173000B8BF5B4207EE903AF8EEE77AC7ED027A5F
:101740005E4B93ED007AD7ED027A77EE677AB3EECF
:10175000047A77EEC77AF5EEC07AF1EE10FA76DD0C
:1017600003F034FF03467B60554B1B687A68D31A3D
:10177000FB60534A7B681360504B93ED007AD7EDC2
:10178000027A77EE677AFDEEE77A17EE903A3B62DF
:101790004C4B1B683A6AD21AFB6892FBF3F3FB616D
:1017A000484A3B6A13603B6AFA6803FB02F2464B05
:1017B0001B681344444A1360434B1B68434A9342DB
:1017C00003DD414B414A1A6007E03F4B1B68404A2A
:1017D000934202DA3C4B3E4A1A603B6A07EE903A6B
:1017E000B8EEE77AD7ED067A27EE277AFB6907EE9F
:1017F000903AF8EEE76AD7ED047A66EEA77A37EE0C
:10180000277A314B1B6807EE903AF8EEE76AD7ED7E
:10181000057A66EEA77A77EE277AFDEEE77A17EE7D
:10182000903A7B622B4B1B687A6A9A4203DD294B04
:101830001B687B6209E0274B1B685B427A6A9A420D
:1018400003DA244B1B685B427B627B6A2CE0224BF1
:101850001B68022B03D0204B1B68032B0DD11F4BA1
:1018600001221A701E491F48FEF7B2FC0346002BE6
:1018700018D10220FFF772FB14E01B4B1B68002BF2
:1018800011D1154B1B68012B04D0134B1B68B3F10E
:10189000FF3F08D1104B00221A60084B4FF00002A6
:1018A0001A6000E000BF002318462837BD4680BDFF
:1018B0006F12833A0000F0415C02002054040020C3
:1018C000480400204C0400205004002040420F0037
:1018D000C0BDF0FF04000020100000206E040020B6
:1018E00088DD0008180400200C00002080B582B0BC
:1018F00000AF03237B60374B1B68012B07D0354BB0
:101900001B68022B03D0334B1B68042B16D178685D
:10191000FEF710FE304BD3E90023FEF775FE0246BA
:101920000B46104619464FF000022C4BFEF7B6FC52
:1019300002460B462A49C1E900231CE0254B1B68DF
:10194000B3F1FF3F03D0234B1B68032B13D17868FF
:10195000FEF7F0FD204BD3E90023FEF755FE0246CB
:101960000B464FF000001D49FEF796FC02460B4661
:101970001B49C1E900231A4BD3E900014FF00002D3
:10198000184BFFF7D1F80346002B06D014494FF04F
:101990000002144BC1E9002310E0114BD3E9000110
:1019A0004FF00002104BFFF7A1F80346002B05D0C3
:1019B0000B494FF000020C4BC1E90023084BD3E95F
:1019C000002310461946FFF7B9F8034618460837B2
:1019D000BD4680BD10000020F003002000005940EB
:1019E00008040020008066400080464080B500AFBB
:1019F00003F086FD00F0EAF800F0CAFC00F0E8FB16
:101A000000F030FA00F0CCFA00F098FC00F0E2F9B7
:101A100000F08AFB00F03AF900F08AF900F014FBBC
:101A200000F006FA4FF47A7003F0DCFD03F07CF965
:101A300004223F493F4807F05EFE03F0C7FD03461E
:101A40001A463D4B1A6003F0C1FD03461A463B4B54
:101A50001A603B4B1B6800225A623A4B1B680022FB
:101A60005A620021384806F065FA4FF47A7003F0A4
:101A7000B9FD08F0EFFD354A0221102008F0E1FE23
:101A80000346334A1360334A0021334808F02CFEE2
:101A90000346324A1360324A0021324808F024FEDD
:101AA0000346314A1360314A0021314808F01CFED8
:101AB0000346304A1360304A0021304808F014FED3
:101AC00003462F4A13602F4A00212F4808F00CFECE
:101AD00003462E4A13602E4A00212E4808F004FEC9
:101AE00003462D4A13602D4A00212D4808F0FCFDC5
:101AF00003462C4A13602C4A00212C4808F0F4FDC0
:101B000003462B4A13602B4A00212B4808F0ECFDBA
:101B100003462A4A13602A4A00212A4808F0E4FDB5
:101B20000346294A136008F0B9FD00BFFDE700BF76
:101B300060030020EC0200203C0400204804002048
:101B4000CC0100205C02002014020020D4DF000839
:101B50005C0300206CDE000821270008340300200D
:101B600090DE0008B927000838030020B4DE000822
:101B7000C53B00083C030020D8DE0008413C0008BB
:101B800040030020FCDE0008B93D000844030020AB
:101B900020DF0008B13E00084803002044DF0008B1
:101BA000794500084C03002068DF0008A5470008BD
:101BB000500300208CDF0008B147000854030020C8
:101BC000B0DF0008E54700085803002080B594B056
:101BD00000AF07F120033022002118460BF08CFBE8
:101BE00007F10C0300221A605A609A60DA601A61E9
:101BF0000023BB60234B1B6C224A43F080531364C9
:101C0000204B1B6C03F08053BB60BB6800237B60E0
:101C10001D4B1B681C4A43F4804313601A4B1B681E
:101C200003F480437B607B680A233B620123FB62F1
:101C300010233B6301237B630023BB6307F1200375
:101C4000184605F055FB0346002B01D002F0C0FEFC
:101C50000F23FB6000233B6100237B610023BB61FA
:101C60000023FB6107F10C030021184605F0B8FDC5
:101C70000346002B01D002F0ABFE00BF5037BD463B
:101C800080BD00BF003802400070004080B584B0C5
:101C900000AF3B4600221A605A609A60DA60214B1E
:101CA000214A1A601F4B00225A601E4B00229A6084
:101CB0001C4B00221A611B4B00221A76194B002282
:101CC00083F82020174B0022DA62164B174A9A62DB
:101CD000144B0022DA60134B0122DA61114B00220F
:101CE00083F830200F4B01225A610E4803F09EFC0E
:101CF0000346002B01D002F06BFE0A233B60012358
:101D00007B600023BB603B461946064803F0D2FCCB
:101D10000346002B01D002F05BFE00BF1037BD462A
:101D200080BD00BF94000020002101400100000F91
:101D300080B584B000AF3B4600221A605A609A60BA
:101D4000DA60214B214A1A601F4B00225A601E4B59
:101D500000229A601C4B00221A611B4B00221A764B
:101D6000194B002283F82020174B0022DA62164B11
:101D7000174A9A62144B0022DA60134B0122DA618F
:101D8000114B002283F830200F4B01225A610E487C
:101D900003F04CFC0346002B01D002F019FE0B238C
:101DA0003B6001237B600023BB603B46194606482D
:101DB00003F080FC0346002B01D002F009FE00BFB7
:101DC0001037BD4680BD00BFDC000020002201406E
:101DD0000100000F80B500AF124B134A1A60114B7F
:101DE000124A5A600F4B00229A600E4B0022DA60B2
:101DF0000C4B4FF480421A610A4B00225A61094B86
:101E000000229A61074B0022DA61064B00221A6217
:101E1000044804F0F9F90346002B01D002F0D8FD84
:101E200000BF80BD2401002000540040A0860100B6
:101E300080B500AF094B0A4A1A60084B05225A6068
:101E4000064B40F6FF729A60044805F0D7F9034646
:101E5000002B01D002F0BCFD00BF80BD7801002046
:101E60000030004080B596B000AF07F14803002273
:101E70001A605A609A60DA6007F1400300221A6023
:101E80005A6007F1240300221A605A609A60DA60EF
:101E90001A615A619A613B1D2022002118460BF0FD
:101EA0002BFA3D4B3D4A1A603B4BA0225A603A4BFD
:101EB00000229A60384B4FF47A72DA60364B002277
:101EC0001A61354B00225A61334B80229A613248A5
:101ED00005F066FE0346002B01D002F079FD4FF4B9
:101EE0008053BB6407F1480319462B4806F0CCFC2D
:101EF0000346002B01D002F06BFD274805F09FFE42
:101F00000346002B01D002F063FD00233B64002355
:101F10007B6407F1400319461F4807F02FFA034678
:101F2000002B01D002F054FD60237B620023BB62D2
:101F30000023FB6200237B630023BB630023FB635E
:101F400007F124030C221946134806F0DBFB034675
:101F5000002B01D002F03CFD00237B600023BB601E
:101F60000023FB6000233B6100237B614FF400539F
:101F7000BB6100233B623B1D1946074807F07AFA14
:101F80000346002B01D002F023FD034803F078F94B
:101F900000BF5837BD4680BD8401002000000140CD
:101FA00080B58CB000AF07F10C0324220021184645
:101FB0000BF0A2F93B1D00221A605A60214B4FF032
:101FC00080421A601F4B00225A601E4B00229A600A
:101FD0001C4B4FF0FF32DA601A4B00221A61194B8A
:101FE00000229A610323FB6000233B6101237B6194
:101FF0000023BB610A23FB6100233B6201237B6258
:102000000023BB620A23FB6207F10C0319460D484B
:1020100006F0B8F80346002B01D002F0D9FC0023EB
:102020007B600023BB603B1D1946064807F0A6F9FC
:102030000346002B01D002F0CBFC00BF3037BD4679
:1020400080BD00BFCC01002080B58AB000AF07F191
:10205000180300221A605A609A60DA6007F11003D0
:1020600000221A605A603B4600221A605A609A6049
:10207000DA602B4B2B4A1A60294B47225A60284BB7
:1020800000229A60264B4FF6FF72DA60244B002242
:102090001A61234B00229A61214805F081FD034615
:1020A000002B01D002F094FC4FF48053BB6107F188
:1020B000180319461A4806F0E7FB0346002B01D027
:1020C00002F086FC164805F0DBFE0346002B01D02B
:1020D00002F07EFC00233B6100237B6107F11003CB
:1020E00019460F4807F04AF90346002B01D002F0C9
:1020F0006FFC00233B6001237B600023BB60002357
:10210000FB603B4600221946054806F05FFA03468D
:10211000002B01D002F05CFC00BF2837BD4680BD1B
:10212000140200200008004080B58CB000AF07F119
:102130000C032422002118460BF0DEF83B1D002280
:102140001A605A60204B214A1A601F4B00225A60C5
:102150001D4B00229A601C4B4FF0FF32DA601A4B85
:1021600000221A61184B00229A610323FB600023AE
:102170003B6101237B610023BB610A23FB610023D8
:102180003B6201237B620023BB620A23FB6207F1EF
:102190000C0319460C4805F0F5FF0346002B01D04F
:1021A00002F016FC00237B600023BB603B1D194638
:1021B000054807F0E3F80346002B01D002F008FCC5
:1021C00000BF3037BD4680BD5C020020000C0040DF
:1021D00080B596B000AF07F1480300221A605A603C
:1021E0009A60DA6007F1400300221A605A6007F132
:1021F000240300221A605A609A60DA601A615A61F8
:102200009A613B1D2022002118460BF075F8494BBE
:10221000494A1A60474B00225A60464B00229A6096
:10222000444B41F61F42DA60424B00221A61414B97
:1022300000225A613F4B00229A613E4805F0B0FCF3
:102240000346002B01D002F0C3FB4FF48053BB6464
:1022500007F148031946374806F016FB0346002BE2
:1022600001D002F0B5FB334805F0E9FC0346002B32
:1022700001D002F0ADFB00233B6400237B6407F137
:10228000400319462B4807F079F80346002B01D08C
:1022900002F09EFB60237B620023BB620023FB6293
:1022A00000233B6300237B630023BB630023FB63AA
:1022B00007F12403002219461E4806F023FA0346BC
:1022C000002B01D002F084FB07F1240304221946FD
:1022D000184806F017FA0346002B01D002F078FBED
:1022E00007F124030C221946124806F00BFA0346A4
:1022F000002B01D002F06CFB00237B600023BB604D
:102300000023FB6000233B6100237B614FF40053FB
:10231000BB6100233B623B1D1946064807F0AAF843
:102320000346002B01D002F053FB00BF5837BD46D7
:1023300080BD00BFA40200200004014080B500AFB2
:10234000114B124A1A60104B4FF4E1325A600E4B97
:1023500000229A600C4B0022DA600B4B00221A61BB
:10236000094B0C225A61084B00229A61064B00224D
:10237000DA61054807F0E4F80346002B01D002F0CB
:1023800027FB00BF80BD00BFEC02002000480040DA
:1023900080B58AB000AF07F1140300221A605A60BA
:1023A0009A60DA601A6100233B615C4B1B6B5B4AED
:1023B00043F010031363594B1B6B03F010033B6195
:1023C0003B690023FB60554B1B6B544A43F00403ED
:1023D0001363524B1B6B03F00403FB60FB68002389
:1023E000BB604E4B1B6B4D4A43F0010313634B4BD9
:1023F0001B6B03F00103BB60BB6800237B60474B92
:102400001B6B464A43F002031363444B1B6B03F000
:1024100002037B607B6800233B60404B1B6B3F4AA1
:1024200043F0080313633D4B1B6B03F008033B6051
:102430003B68002240F2E251394803F099FE002245
:102440000C21384803F094FE002248F6200136485B
:1024500003F08EFE40F2E2537B610123BB61002357
:10246000FB6100233B6207F1140319462C4803F07B
:10247000E3FC0C237B610123BB610023FB6102238E
:102480003B6207F114031946264803F0D5FC4023AC
:102490007B610223BB610023FB6100233B620223BB
:1024A0007B6207F1140319461E4803F0C5FC4FF484
:1024B00008437B610123BB610023FB6102233B6274
:1024C00007F114031946184803F0B6FC4FF4807363
:1024D0007B614FF48813BB610023FB6107F1140398
:1024E0001946124803F0A8FC20237B610123BB613D
:1024F0000023FB6100233B6207F1140319460A48DD
:1025000003F09AFC00220521172003F0CCFB1720D2
:1025100003F0E5FB00BF2837BD4680BD0038024010
:10252000001002400000024000040240000C024083
:1025300080B582B000AF7860674B1B68002B40F01D
:10254000BE800222654966480AF0DEFE644B002226
:102550009A70624B9B78303B642202FB03F15F4B25
:10256000DB78A3F1300213469B0013445B000B445D
:1025700007EE903AF8EEE77A5A4BC3ED007A4FF443
:10258000FA7008F043F9584B4FF000021A60544AB1
:102590000021142002F096FB54495148FDF718FE23
:1025A0000346002B22D14F4BD3ED007A9FED507A9A
:1025B00077EEC77A17EE900AFDF7CEFF44A3D3E972
:1025C0000023FEF74BF902460B46104619464FF022
:1025D0000002484BFEF718F802460B461046194613
:1025E000FEF7F4FA0346404A13605DE042493C4876
:1025F000FDF7EEFD0346002B22D13A4BD3ED007AD6
:102600009FED3E7A77EEC77A17EE900AFDF7A4FFAA
:102610002FA3D3E90023FEF721F902460B4610460B
:1026200019464FF00002334BFDF7EEFF02460B4612
:1026300010461946FEF7CAFA03462B4A136033E0E8
:102640002F492748FDF7C4FD0346002B2CD02D4908
:102650002348FDF7BDFD0346002B0DD02A49204835
:10266000FDF7B6FD0346002B06D028491C48FDF7B0
:10267000AFFD0346002B08D1184BDB78303B1A46E0
:10268000234924480AF018FE0EE023491448FDF7B8
:102690009FFD0346002B07D1104BDB78303B1A46D9
:1026A0001B491C480AF008FE0B4B01221A601B4B09
:1026B0001B685B680422302108480AF01DFE0422D2
:1026C0000649164807F017F800BF0837BD4680BD19
:1026D000D7A3703D0AEB694024040020600300206A
:1026E00018040020280400205404002090DD000875
:1026F000000068420060984094DD00080000184225
:1027000098DD00089CDD0008A0DD0008A4DD0008BD
:10271000A8DD00081C04002088DD0008EC02002071
:1027200080B582B000AF7860184BD3E90023104623
:102730001946FEF703FA03461A46154915480AF0EA
:10274000BBFD154BD3E9002310461946FEF7F6F9F9
:1027500003461A46114912480AF0AEFD114A1421E7
:10276000002002F0AFFA104BD3E9002310461946BF
:10277000FEF7E4F903461A460C490D480AF09CFDA1
:10278000012008F043F800BFCEE700BFF0030020AF
:10279000B4DD0008A0030020F8030020C0DD00081D
:1027A000B40300201804002058040020C8DD0008ED
:1027B000C80300200000000080B588B000AF78603A
:1027C000FEF7C8FD0623FB6140F6B833BB614FF44A
:1027D00016737B61AE4B1B680133052B00F2FE863E
:1027E00001A252F823F000BFCF33000801280008EF
:1027F000652800086731000847320008AD3300083B
:10280000FEF7FCFDA34B1B6864221A64A24A322126
:10281000002002F057FAA149A148FDF7D9FC034670
:10282000002B0DD09F499E48FDF7D2FC0346002B9C
:1028300006D09D499A48FDF7CBFC0346002B06D1F4
:102840009A4B64221A700220FEF788FB02E00120F6
:10285000FEF784FBFEF7F0FD8D4B6FF001021A606E
:1028600000F0C6BEFEF7ACFD914B1B68002B09D1F2
:10287000FEF7A6FDFFF73AF80246864B1B681A647E
:1028800000F0AFBE8A4B1B68012B77D18949844881
:10289000FDF79EFC0346002B70D17E4B1B68352252
:1028A0001A64854BD3E90001844BD3E90023FDF77B
:1028B000F3FC02460B461146B96023F00043FB606F
:1028C0004FF000027E4BD7E90201FEF70FF90346F5
:1028D000002B4AD04FF000027A4BD7E90201FDF7F6
:1028E00093FE02460B46104619464FF00002744B09
:1028F000FDF7B4FF02460B4643EC172B9FED5C1B24
:10290000B0EE470AF0EE670A0BF08AF953EC102B91
:1029100010461946FEF712F903466B4A136056A398
:10292000D3E90023D7E90201FDF76EFE02460B460C
:10293000104619464FF00002644BFDF78FFF024628
:102940000B4643EC172B9FED4C1BB0EE470AF0EE05
:10295000670A0BF065F953EC102B10461946FEF789
:10296000EDF803465A4A1360FCE3594B4FF4967254
:102970001A60554B4FF47A621A60F3E34C4B1B68B4
:10298000012B40F0A98053494548FDF721FC03463F
:10299000002B40F0A180484BD3E90001474BD3E91D
:1029A0000023FDF779FC02460B461146B96023F07F
:1029B0000043FB604FF00002414BD7E90201FEF7F4
:1029C00095F80346002B4AD04FF000023D4BD7E963
:1029D0000201FDF719FE02460B46104619464FF05C
:1029E0000002374BFDF73AFF02460B4643EC172B2C
:1029F0009FED231BB0EE470AF0EE670A0BF010F9CB
:102A000053EC102B10461946FEF798F80346304A4F
:102A1000136019A3D3E90023D7E90201FDF7F4FD00
:102A200002460B46104619464FF00002274BFDF7B1
:102A300015FF02460B4643EC172B9FED131BB0EE20
:102A4000470AF0EE670A0BF0EBF853EC102B104638
:102A50001946FEF773F803461B4A136082E31C4BCA
:102A60004FF47A621A60184B4FF47A721A6079E365
:102A700000000000000089400000000000C072401B
:102A80000000000000208C400000000000C08240D8
:102A90001000002084010020D4DD00089CDD000827
:102AA00018040020A0DD0008E8DD00081400002064
:102AB0000C000020ECDD0008F0030020580400208A
:102AC00000003E400040AF4034040020000034408D
:102AD00038040020F0DD0008BD4B1B68012B77D1C6
:102AE000BC49BD48FDF774FB0346002B70D1BB4BBE
:102AF0001B68B4221A64BA4BD3E90001B94BD3E97D
:102B00000023FDF7C9FB02460B461146B96023F0CE
:102B10000043FB604FF00002B34BD7E90201FDF721
:102B2000E5FF0346002B4AD0A3A3D3E90023D7E94E
:102B30000201FDF769FD02460B46104619464FF0AB
:102B40000002AA4BFDF78AFE02460B4643EC172B08
:102B50009FED9B1BB0EE470AF0EE670A0BF060F8A2
:102B600053EC102B10461946FDF7E8FF0346A04A28
:102B7000136095A3D3E90023D7E90201FDF744FDD3
:102B800002460B46104619464FF00002964BFDF7E1
:102B900065FE02460B4643EC172B9FED891BB0EEFA
:102BA000470AF0EE670A0BF03BF853EC102B104687
:102BB0001946FDF7C3FF03468E4A1360D2E28C4BE1
:102BC00040F6B8321A608B4B4FF496721A60C9E225
:102BD0007F4B1B68012B77D187497F48FDF7F8FAB7
:102BE0000346002B70D17D4B1B682D221A647C4B51
:102BF000D3E900017B4BD3E90023FDF74DFB0246EF
:102C00000B461146B96023F00043FB604FF0000211
:102C1000754BD7E90201FDF769FF0346002B4AD047
:102C200065A3D3E90023D7E90201FDF7EDFC0246D5
:102C30000B46104619464FF000026C4BFDF70EFE96
:102C400002460B4643EC172B9FED5D1BB0EE470A87
:102C5000F0EE670A0AF0E4FF53EC102B1046194619
:102C6000FDF76CFF0346634A136057A3D3E90023C3
:102C7000D7E90201FDF7C8FC02460B46104619468B
:102C80004FF00002584BFDF7E9FD02460B4643ECBE
:102C9000172B9FED4B1BB0EE470AF0EE670A0AF0C8
:102CA000BFFF53EC102B10461946FDF747FF0346B4
:102CB0004F4A136056E24F4B40F6B8321A604C4B05
:102CC0004FF496721A604DE2414B1B68012B40F0A5
:102CD000A4804A494048FDF77BFA0346002B40F0A8
:102CE0009C803E4B1B68B4221A643D4BD3E9000123
:102CF0003C4BD3E90023FDF7CFFA02460B461146C1
:102D0000B96023F00043FB604FF00002374BD7E976
:102D10000201FDF7EBFE0346002B75D04FF00002D9
:102D2000374BD7E90201FDF76FFC02460B46104610
:102D300019464FF00002334BFDF790FD02460B465B
:102D400043EC172B9FED1E1BB0EE470AF0EE670A0F
:102D50000AF066FF53EC102B10461946FDF7EEFE05
:102D60000346234A136018A3D3E90023D7E90201DD
:102D7000FDF74AFC02460B46104619464FF000028A
:102D8000194BFDF76BFD02460B4643EC172B9FEDED
:102D90000C1BB0EE470AF0EE670A0AF041FF53EC55
:102DA000102B10461946FDF7C9FE0346114A136061
:102DB000D8E100BFAFF30080000000000070A74022
:102DC00000000000000089400000000000C07240C8
:102DD0000C000020F4DD000818040020840100200D
:102DE000F0030020580400200000344000003E4062
:102DF0003804002034040020F8DD0008FCDD000861
:102E00000040AF4000004440874B4FF47A621A60A4
:102E1000864B4FF4FA721A60A4E1854B1B68012BB4
:102E200077D184498448FDF7D3F90346002B70D14C
:102E3000824B1B68AA221A64814BD3E90001814BA3
:102E4000D3E90023FDF728FA02460B461146B96084
:102E500023F00043FB604FF000027B4BD7E90201F7
:102E6000FDF744FE0346002B4AD04FF00002774B9B
:102E7000D7E90201FDF7C8FB02460B46104619468A
:102E80004FF00002724BFDF7E9FC02460B4643ECA3
:102E9000172B9FED5F1BB0EE470AF0EE670A0AF0B2
:102EA000BFFE53EC102B10461946FDF747FE0346B4
:102EB0005D4A136058A3D3E90023D7E90201FDF767
:102EC000A3FB02460B46104619464FF00002614B29
:102ED000FDF7C4FC02460B4643EC172B9FED4C1B41
:102EE000B0EE470AF0EE670A0AF09AFE53EC102B98
:102EF00010461946FDF722FE03464C4A136031E1A5
:102F0000494B4FF47A621A60484B4FF4FA721A60D8
:102F100028E1474B1B68012B40F0A6804E494648EC
:102F2000FDF756F90346002B40F09E80434B1B688B
:102F300039221A64424BD3E90001424BD3E9002302
:102F4000FDF7AAF902460B461146B96023F000438B
:102F5000FB604FF00002414BD7E90201FDF7C6FDCF
:102F60000346002B4AD02EA3D3E90023D7E9020160
:102F7000FDF74AFB02460B46104619464FF0000289
:102F8000374BFDF76BFC02460B4643EC172B9FEDCE
:102F9000201BB0EE470AF0EE670A0AF041FE53EC40
:102FA000102B10461946FDF7C9FD03461F4A136052
:102FB0004FF000022B4BD7E90201FDF725FB02463B
:102FC0000B46104619464FF00002224BFDF746FC17
:102FD00002460B4643EC172B9FED0D1BB0EE470A44
:102FE000F0EE670A0AF01CFE53EC102B104619464F
:102FF000FDF7A4FD03460C4A1360B3E00A4B4FF4FF
:10300000FA721A60094B41F288321A60AAE000BFD6
:1030100000000000000089400000000000C0724075
:10302000000000000088B340380400203404002071
:103030000C00002000DE000818040020840100209D
:10304000F003002058040020000039400040AF4049
:1030500000003E400000344004DE00080080414093
:103060000000494000C08240BB4B1B68012B40F070
:10307000B882BA49BA48FDF7ABF80346002B40F0D6
:10308000B082B84B1B683C221A64B74BD3E90001ED
:10309000B64BD3E90023FDF7FFF802460B46114675
:1030A000B96023F00043FB604FF00002B04BD7E95A
:1030B0000201FDF71BFD0346002B4AD0A0A3D3E974
:1030C0000023D7E90201FDF79FFA02460B4610469E
:1030D00019464FF00002A74BFDF7C0FB02460B4616
:1030E00043EC172B9FED981BB0EE470AF0EE670AF2
:1030F0000AF096FD53EC102B10461946FDF71EFD05
:1031000003469D4A136092A3D3E90023D7E9020145
:10311000FDF77AFA02460B46104619464FF00002B8
:10312000964BFDF79BFB02460B4643EC172B9FED9E
:10313000861BB0EE470AF0EE670A0AF071FD53EC09
:10314000102B10461946FDF7F9FC03468C4A136014
:1031500047E28B4B4FF4FA721A60874B40F6AC5241
:103160001A603EE23DE2FEF72BF9FEF7BFFB024696
:103170007C4B1B681A64834B93F90030002B00F0E2
:10318000328281497648FDF723F80346002B13D19C
:1031900076494FF000027D4BC1E90023714B1B685B
:1031A000B4221A64FEF72AF9642007F02FFBFEF719
:1031B00083F9642007F02AFB75496948FDF708F890
:1031C0000346002B0FD169494FF00002714BC1E952
:1031D0000023FEF713F9642007F018FBFEF76CF9E3
:1031E000642007F013FB6C495D48FCF7F1FF0346D0
:1031F000002B0FD15D494FF00002664BC1E900235F
:10320000FEF7FCF8642007F001FBFEF775F9642077
:1032100007F0FCFA61495248FCF7DAFF0346002B3D
:1032200040F0E18151494FF00002584BC1E90023C1
:10323000FEF7E4F8642007F0E9FAFEF75DF9642090
:1032400007F0E4FACFE1564A3221002001F03AFDBE
:10325000FEF798F8FEF74AFB0246424B1B681A64D9
:10326000484B93F90030002B00F0BF8146493C48A1
:10327000FCF7AEFF0346002B10D13C494FF0000293
:10328000424BC1E90023374B1B68B4221A64FEF796
:10329000B5F8FEF711F9642007F0B8FA3C49304858
:1032A000FCF796FF0346002B0CD130494FF000028B
:1032B000384BC1E90023FEF7A1F8FEF7FDF86420C2
:1032C00007F0A4FA34492648FCF782FF0346002B96
:1032D0000CD126494FF000022E4BC1E90023FEF726
:1032E0008DF8FEF709F9642007F090FA2B491C4885
:1032F000FCF76EFF0346002B0CD11C494FF0000277
:10330000224BC1E90023FEF779F8FEF7F5F86420B7
:1033100007F07CFA23491248FCF75AFF0346002BBA
:1033200040F06381FEF76AF8164B00221A701E4BBC
:103330006FF001021A60642007F068FA55E100BFDF
:10334000000000000058AB40000000000000894071
:103350000000000000C072400C00002008DE0008E1
:103360001804002084010020F003002058040020ED
:103370000000394000004440340400200000344084
:10338000380400206E040020F0DD0008008056C0E4
:10339000ECDD0008008056400CDE000810DE00085E
:1033A00014DE000888DD000810000020FEF708F891
:1033B000FEF79CFA0246B24B1B681A64B14B40F20E
:1033C000DC521A60B04B40F2DC521A6010E1FDF79B
:1033D000D9FFAE4B1B68002B06D1FEF787FA0246D9
:1033E000A74B1B681A6402E1A84B1B68012B77D11D
:1033F000A749A848FCF7ECFE0346002B70D1A04B70
:103400001B682D221A64A44BD3E90001A34BD3E916
:103410000023FCF741FF02460B461146B96023F03A
:103420000043FB604FF000029D4BD7E90201FDF71E
:103430005DFB0346002B4AD04FF00002994BD7E9C1
:103440000201FDF7E1F802460B46104619464FF01F
:103450000002934BFDF702FA02460B4643EC172B92
:103460009FED811BB0EE470AF0EE670A0AF0D8FB29
:1034700053EC102B10461946FDF760FB0346824AB9
:1034800013604FF00002884BD7E90201FDF7BCF84A
:1034900002460B46104619464FF00002834BFDF7DB
:1034A000DDF902460B4643EC172B9FED6F1BB0EE88
:1034B000470AF0EE670A0AF0B3FB53EC102B1046F4
:1034C0001946FDF73BFB03466E4A136085E06D4BE2
:1034D0004FF4AF621A606C4B4FF47A621A607CE072
:1034E0006A4B1B68012B40F0828071496948FCF7E8
:1034F0006FFE0346002B7AD1614B1B68B4221A641D
:10350000654BD3E90001654BD3E90023FCF7C4FE0A
:1035100002460B461146B96023F00043FB604FF0B2
:1035200000025F4BD7E90201FDF7E0FA0346002BEA
:103530004AD04FA3D3E90023D7E90201FDF764F88D
:1035400002460B46104619464FF00002544BFDF759
:1035500085F902460B4643EC172B9FED471BB0EE57
:10356000470AF0EE670A0AF05BFB53EC102B10469B
:103570001946FDF7E3FA0346424A13604FF0000292
:103580004C4BD7E90201FDF73FF802460B461046C7
:1035900019464FF00002454BFDF760F902460B4615
:1035A00043EC172B9FED341BB0EE470AF0EE670A91
:1035B0000AF036FB53EC102B10461946FDF7BEFA05
:1035C0000346314A136012E02E4B41F268021A6042
:1035D0002D4B4FF4C8721A6009E008E0FDF70EFFAA
:1035E00006E000BF04E000BF02E000BF00E000BF53
:1035F000264B1B68012B40F0BB822F492548FCF766
:10360000E7FD0346002B5DD1244BD3E900014FF0C9
:1036100000024FF08043FCF73FFE02460B46104687
:1036200019461D4BD3E90023FDF76AFA0346002B28
:1036300048D0FDF7E3FE154B00221A60FDF7FCFEB3
:10364000642007F0E3F80E4B1B6864221A64C8205C
:1036500007F0DCF8194B4FF000021A60184B4FF0DE
:10366000FF321A6084E200BF0000000000008940C1
:10367000000000000068B0400000000000C0824070
:103680008401002038040020340400200C000020B5
:1036900010DE000818040020F00300205804002069
:1036A000000044400040AF4000E09540000034403E
:1036B0000CDE000800C08240ECDD0008540400204D
:1036C00010000020AF49B048FCF782FD0346002BF4
:1036D0002DD1AE4BD3E900014FF000024FF08043F3
:1036E000FCF7DAFD02460B4610461946A84BD3E913
:1036F0000023FDF705FA0346002B18D0FDF77EFEE8
:10370000A44B00221A60FDF797FE642007F07EF8B4
:10371000A14B1B6864221A64C82007F077F89F4BFE
:103720004FF000021A609E4B01221A6020E29D4970
:103730009548FCF74DFD0346002B2CD1934BD3E964
:1037400000014FF00002984BFCF7A8FD02460B4623
:10375000104619468E4BD3E90023FDF7DBF90346EB
:10376000002B18D0FDF74AFE8A4B00221A60FDF7A5
:1037700063FE642007F04AF8874B1B6864221A64D2
:10378000C82007F043F8854B884A1A60844B4FF0F5
:10379000FF321A60ECE186497B48FCF719FD0346CD
:1037A000002B2CD1794BD3E900014FF000027E4B66
:1037B000FCF774FD02460B4610461946744BD3E9DC
:1037C0000023FDF7A7F90346002B18D0FDF716FEDE
:1037D000704B00221A60FDF72FFE642007F016F8E8
:1037E0006D4B1B6864221A646C4B724A1A60642029
:1037F00007F00CF86A4B4FF0FF321A60B8E16E49DF
:103800006148FCF7E5FC0346002B28D15F4BD3E968
:1038100000014FF00002694BFCF740FD02460B46E9
:10382000104619465A4BD3E90023FDF773F90346B6
:10383000002B14D0FDF7E2FD564B00221A606420E5
:1038400006F0E4FF544B1B6864221A64642006F0FF
:10385000DDFFFDF7F1FD524B00221A6088E1584967
:103860004948FCF7B5FC0346002B29D1474BD3E967
:1038700000014FF000024FF08043FCF70FFD0246BD
:103880000B4610461946424BD3E90023FDF742F997
:103890000346002B14D0FDF7B1FD3E4B00221A6009
:1038A000642006F0B3FF3C4B1B6864221A6464205A
:1038B00006F0ACFFFDF7C0FD394B00221A6057E15E
:1038C00040493148FCF784FC0346002B29D12F4B9B
:1038D000D3E900014FF000024FF08043FCF7DCFC1D
:1038E00002460B4610461946294BD3E90023FDF743
:1038F00007F90346002B14D0FDF780FD254B00226D
:103900001A60FDF799FD642006F080FF224B1B68CA
:1039100064221A64642006F079FF214B00221A60A9
:1039200026E129491848FCF753FC0346002B4DD1EA
:10393000164BD3E900014FF00002204BFCF7AEFC20
:1039400002460B4610461946114BD3E90023FDF7FA
:10395000D7F80346002B39D0FDF750FD0D4B002260
:103960001A60642006F052FF0B4B1B6864221A6435
:10397000642006F04BFFFDF75FFD094B00221A6043
:10398000F6E000BF0CDE00081804002058040020F8
:10399000F00300200C0000208401002054040020CB
:1039A0001000002010DE00080000F03F17C2704336
:1039B000F0DD0008063CE943FCDD0008000008409B
:1039C000F4DD000804DE0008F8DD000870497148E5
:1039D000FCF7FEFB0346002B28D16F4BD3E9000117
:1039E0004FF000026D4BFCF757FC02460B461046A9
:1039F00019466B4BD3E90023FDF782F80346002BF1
:103A000014D0FDF7FBFC674B00221A60642006F01F
:103A1000FDFE654B1B6864221A64642006F0F6FE06
:103A2000FDF70AFD614B00221A60A1E06049594888
:103A3000FCF7CEFB0346002B28D1574BD3E90001FE
:103A40004FF00002554BFCF729FC02460B4610468E
:103A50001946534BD3E90023FDF75CF80346002BCE
:103A600014D0FDF7CBFC4F4B00221A60642006F007
:103A7000CDFE4D4B1B6864221A64642006F0C6FE1E
:103A8000FDF7DAFC494B00221A6071E049494148D0
:103A9000FCF79EFB0346002B6AD13F4BD3E90001A4
:103AA0004FF000024FF00003FDF73EF80346002BF5
:103AB00029D0394BD3E900014FF000024FF0804389
:103AC000FCF7EAFB02460B4610461946344BD3E995
:103AD0000023FDF715F80346002B49D0FDF78EFCB7
:103AE000304B00221A60642006F090FE2E4B1B68BB
:103AF00064221A64642006F089FEFDF79DFC2B4BBE
:103B000000221A6034E0244BD3E900014FF0000298
:103B10004FF00003FCF7EAFF0346002B28D01E4BB2
:103B2000D3E900014FF000024FF08043FCF7B6FBF1
:103B300002460B4610461946194BD3E90023FCF701
:103B4000E9FF0346002B13D0FDF758FC154B00226C
:103B50001A60642006F05AFE134B1B6864221A6434
:103B6000642006F053FEFDF767FC104B00221A603C
:103B7000114B1A68114B1B681A64114B1A680F4BD2
:103B80001B685A63012006F041FEFEF723BE00BF0A
:103B900008DE000818040020580400200000084037
:103BA000F00300200C000020840100201000002001
:103BB00000DE000820DE000834040020A4020020FB
:103BC0003804002080B582B000AF7860154A00212B
:103BD000002001F077F8144A0A21002001F072F861
:103BE000124A1421002001F06DF8114A1E21002014
:103BF00001F068F80F4A2821002001F063F80E4A0E
:103C00003221002001F05EF800F0E8FE642006F0AA
:103C1000FDFD0A4803F034FB012006F0F7FD00BF6C
:103C2000D4E700BF64030020780300208C03002049
:103C3000A0030020B4030020C80300207801002066
:103C400080B588B000AF78603C21524804F040FB5A
:103C5000504B1B685B6AFB6101F0B8FCB86101F076
:103C6000B5FC0246BB69D31A0A2B75D9494B1B68B0
:103C70005B6A7B61474B1B681B6803F01003102BCA
:103C800012D17A69FB699A4205DAFA697B69D31A1B
:103C9000414A13601AE07B69C3F57F43FF33FA6939
:103CA00013443D4A136011E07A69FB699A4205DDCD
:103CB0007A69FB69D31A384A136007E0FB69C3F5D8
:103CC0007F43FF337A691344334A1360324B1B68D6
:103CD00042F21072934202DD2F4B00221A602E4BEB
:103CE0001B684FF6FF72934202D12B4B00221A60E1
:103CF000284B1B685B6AFB6128492948FCF768FA76
:103D00000346002B25D1244B1B681846FDF714FCF5
:103D100003461846FCF70EFC02460B46C7E9022391
:103D2000204B1B681846FCF705FCD7E90223FCF77B
:103D3000B5FA02460B4610461946FCF7FFFE03464D
:103D4000184A1360184B1A68134B1B681344164A21
:103D5000136001F03BFCB861144B1B68002B7FF42F
:103D60007EAF134B1B68012B0DD0114B1B68B3F1B9
:103D7000FF3F08D00E4B1B68022B04D00C4B1B6876
:103D8000032B7FF46CAFFDF701FC0346094A136077
:103D900065E700BFCC0100202C04002024DE0008D1
:103DA0001804002008000020140400200C0000204B
:103DB000100000203804002080B586B000AF786085
:103DC0003C21364804F084FA344B1B685B6A7B6103
:103DD00001F0FCFB386101F0F9FB02463B69D31AA4
:103DE000B3F57A7F3FD92D4B1B685B6AFB602B4B89
:103DF0001B681B6803F01003102B12D1FA687B6953
:103E00009A4205DA7A69FB68D31A254A13601AE0E8
:103E1000FB68C3F57F43FF337A691344204A13607C
:103E200011E0FA687B699A4205DDFA687B69D31A6A
:103E30001B4A136007E07B69C3F57F43FF33FA68D1
:103E40001344174A1360164B1B684FF6FF729342D8
:103E500002D1134B00221A60104B1B685B6A7B6116
:103E600001F0B4FB38610F4B1B68002BB3D10E4B34
:103E70001B68012B0CD00C4B1B68B3F1FF3F07D024
:103E8000094B1B68022B03D0074B1B68032BA2D1E5
:103E9000FDF73AFC0346054A13609CE75C020020EC
:103EA000300400200C00002010000020340400200A
:103EB00080B582B000AF7860A34B1B68012BFBD1AB
:103EC000A14B00221A60A149A148FCF781F90346E1
:103ED000002B12D19F4A0021002000F0F3FE9E4BE0
:103EE0001B6864221A64642006F090FC9B4B00223D
:103EF0001A609B4B01221A60DEE79A499448FCF74E
:103F000067F90346002B13D1934B1B6864221A6494
:103F1000954A0021002000F0D5FE642006F076FCD2
:103F20008E4B00221A608E4B4FF0FF321A60C3E7AF
:103F30008E498748FCF74CF90346002B16D1864B77
:103F40001B6835221A64962006F060FC834B012220
:103F50001A6087494FF00002864BC1E90023804B6D
:103F600001221A60642006F051FCA5E782497848D6
:103F7000FCF72EF90346002B14D1804A00210020C3
:103F800000F0A0FE754B00221A607D4B7D4A1A603E
:103F9000642006F03BFC724B03221A60642006F09A
:103FA00035FC89E778496A48FCF712F90346002B8B
:103FB0001CD1764A0021002000F084FE664B1B686D
:103FC0002D221A64962006F021FC644B01221A600F
:103FD00067494FF000026E4BC1E90023604B4FF080
:103FE000FF321A60642006F011FC65E76949584801
:103FF000FCF7EEF80346002B17D1574B1B68B42291
:104000001A64962006F002FC544B01221A605849AB
:104010004FF00002574BC1E90023514B4FF0FF32E4
:104020001A60642006F0F2FB46E75B494848FCF75B
:10403000CFF80346002B0CD1484B00221A60504B9E
:10404000564A1A60642006F0E1FB454B03221A60D1
:1040500032E753493E48FCF7BBF80346002B1AD120
:10406000504B4FF47A621A604F4B00221A604F4B4C
:1040700064221A70424B4E4A1A60374B1B68642206
:104080001A64642006F0C2FB344B00221A60344BE1
:1040900001221A6010E747492D48FCF799F80346BA
:1040A000002B17D13F4B4FF47A621A603F4B6422CA
:1040B0001A70334B3E4A1A60274B1B6864221A64FD
:1040C000642006F0A3FB254B00221A60244B01223A
:1040D0001A60F1E638491E48FCF77AF80346002BCF
:1040E00017D1304B4FF47A621A60304B64221A7049
:1040F000234B2F4A1A60184B1B6864221A646420F1
:1041000006F084FB154B00221A60154B01221A6041
:10411000D2E62A490E48FCF75BF80346002B51D142
:1041200013494FF00002264BC1E900231F4B6422C4
:104130001A700A4B01221A60642006F067FB084BD4
:1041400001221A60B8E600BF2404002090DD0008B8
:104150001804002028DE0008840100200C00002044
:104160001000002094DD000830DE0008ECDD0008BF
:104170005804002000805640F0DD000838DE0008BA
:10418000540400207085A54310DE000844DE0008BA
:10419000008056C00CDE000888DD00082D6D074445
:1041A00048DE000804000020100400201400002055
:1041B000E3D2674624DE00084CDE0008F4DD000888
:1041C000008046C0A849A948FCF702F80346002B26
:1041D00012D1A7494FF00002A64BC1E90023A64B1C
:1041E00064221A70A54B01221A60642006F00EFBAF
:1041F000A34B01221A605FE6A2499C48FBF7E8FF47
:104200000346002B12D19A494FF000029E4BC1E9A0
:104210000023994B64221A70984B01221A60642083
:1042200006F0F4FA964B01221A6045E697498F484A
:10423000FBF7CEFF0346002B12D18F4B64221A707E
:104240008B494FF00002924BC1E900238B4B0122B6
:104250001A60642006F0DAFA894B01221A602BE614
:104260008C498248FBF7B4FF0346002B0FD18049ED
:104270004FF00002884BC1E90023804B01221A60F5
:10428000642006F0C3FA7E4B01221A6014E68349CB
:104290007648FBF79DFF0346002B0FD174494FF082
:1042A00000027F4BC1E90023744B01221A60642095
:1042B00006F0ACFA724B01221A60FDE579496B48B1
:1042C000FBF786FF0346002B33D16B4B1B781A4656
:1042D0006FF0090302FB03F3F2331846FCF72AF9E7
:1042E0005FA3D3E90023FCF7B9FA02460B46104658
:1042F00019464FF000026C4BFCF786F902460B465C
:1043000010461946FCF762FC0346684A13603220E7
:1043100006F07CFA664B1B6864221A64322006F0B1
:1043200075FA564B00221A60554B4FF0FF321A6057
:10433000C2E560494D48FBF74BFF0346002B33D1E4
:104340004D4B1B781A466FF0090302FB03F3AC33A5
:104350001846FCF7EFF842A3D3E90023FCF77EFAF6
:1043600002460B46104619464FF000024E4BFCF732
:104370004BF902460B4610461946FCF727FC03464C
:104380004A4A1360322006F041FA494B1B68642206
:104390001A64322006F03AFA384B00221A60384B81
:1043A0004FF0FF321A6087E543493048FBF710FFB2
:1043B0000346002B34D1304B1B781A466FF00903AB
:1043C00002FB03F303F588731846FCF7B3F824A344
:1043D000D3E90023FCF742FA02460B461046194681
:1043E0004FF00002304BFCF70FF902460B46104627
:1043F0001946FCF7EBFB03462C4A1360322006F00B
:1044000005FA2B4B1B6864221A64322006F0FEF971
:104410001A4B00221A601A4B4FF0FF321A604BE51C
:1044200026491248FBF7D4FE0346002B4AD1244B01
:10443000D3E900234FF000001949FBF72DFF024696
:104440000B460B49C1E90023642006F0DFF90B4B52
:1044500001221A600A4B01221A602DE5AFF3008099
:10446000D7A3703D0AEB6940F8DD0008180400206E
:104470005804002000004440140000200C000020DC
:1044800010000020FCDD0008008056C004DE00089B
:104490000080564000DE0008008066C008DE00088C
:1044A000008066409CDD00080060984054040020B5
:1044B00084010020E8DD0008A0DD000820DE0008FF
:1044C000F803002022492348FBF782FE0346002B15
:1044D00031D1214B1B6864221A64204B41F2707267
:1044E0001A601F4B64221A701E4B1B681C3B184637
:1044F000FCF720F814A3D3E90023FCF7AFF9024638
:104500000B46104619464FF00002174BFCF77CF89B
:1045100002460B4610461946FCF758FB0346134A61
:104520001360642006F072F9114B00221A60114BDF
:1045300001221A60C0E40E4B4FF0FF321A600A20CD
:1045400006F064F9B8E400BFD7A3703D0AEB6940F8
:1045500050DE000818040020840100200400002020
:10456000140000200800002000609840540400203F
:104570000C00002010000020B0B586B000AF7860BD
:104580000023BB810023FB82FCF7A0FE01F01EF894
:1045900003467D4A136001F019F838617A4B1B68B5
:1045A0003A69D31A092BF6D907F10C0319463720BB
:1045B000FCF73EFE3B7B1B021AB27B7B1BB2134314
:1045C0001AB2724B1A80714BB3F9003013F1030F1A
:1045D00004DB6E4BB3F90030032B10DD6C4B1B6812
:1045E000002B0CD06A4B1B6813F1020F07D0684BED
:1045F0001B68022B03D0664B1B68032B3AD1654B1B
:10460000D3E900014FF000024FF00003FBF746FE34
:1046100002460B465F49C1E900235C4BB3F9003009
:104620001A46B7F9163013441846FBF783FF0446C1
:104630000D46554B1B683A69D31A1846FBF76AFFBB
:104640004FA3D3E90023FCF709F902460B462046A5
:104650002946FBF7D9FF02460B46104619464E4B3A
:10466000D3E90023FBF71AFE02460B464A49C1E98B
:10467000002357E0454BB3F900301A46B7F916301E
:1046800013441846FBF756FF04460D463E4B1B6885
:104690003A69D31A1846FBF73DFF39A3D3E9002343
:1046A000FCF7DCF802460B4620462946FBF7ACFF38
:1046B00002460B4610461946364BD3E90023FBF75A
:1046C000EDFD02460B463349C1E900232F4BB3F9F8
:1046D00000301A46B7F9163013441846FBF72AFF84
:1046E00004460D46284B1B683A69D31A1846FBF757
:1046F00011FF23A3D3E90023FCF7B0F802460B46D1
:1047000020462946FBF780FF02460B461046194615
:10471000214BD3E90023FBF7C1FD02460B461E499E
:10472000C1E900231B4BD3E900014FF000021B4BF2
:10473000FCF7F0F90346002B07D016494FF00002B2
:104740004FF00003C1E9002311E0124BD3E900014F
:104750004FF00002124BFCF7D3F90346002B06D0B2
:104760000C494FF000024FF00003C1E9002300F0B4
:104770002DFF0346044A13600DE700BFAFF300802E
:10478000000000000004D0400004002004040020C9
:1047900010000020F0030020F80300200080864075
:1047A000008086C080B483B000AF786000BFFDE7B2
:1047B00080B584B000AF78600023FB60FB68002BFD
:1047C00009D1074B1B6864221A644FF47A7006F013
:1047D0001DF80123FB600A2006F018F8EEE700BF81
:1047E0008401002080B584B000AF786007F0AAF99A
:1047F000F8603223BB606C4B1B68002B08D06A4BFF
:1048000000221A60694B00221A600A2005F0FEFFA0
:1048100067496848FBF7DCFC0346002B0DD066496E
:104820006448FBF7D5FC0346002B06D0634961487A
:10483000FBF7CEFC0346002BDDD1FCF7DBFC5C492B
:104840005C48FBF7C5FC0346002B34D15C4B1B785E
:10485000232B30D85B4B4FF47A721A605449554879
:10486000FBF7B6FC0346002B40F09480544B1B78BA
:10487000142B00F28F80544B4FF000021A60FCF7AB
:10488000BDFDFCF7D9FD4E4B64221A704D4B4FF421
:104890007A621A60142005F0B9FF4C4B4FF0FF32DA
:1048A0001A60424B00221A60424B2D221A8064206B
:1048B00005F0ACFF6EE041493E48FBF789FC03463A
:1048C000002B32D13E4B1B78232B2ED83D4B4FF47F
:1048D0007A721A6039493748FBF77AFC0346002B95
:1048E0005AD1374B1B78142B56D8374B4FF0000258
:1048F0001A60FCF783FDFCF79FFD314B64221A70B0
:10490000304B4FF47A621A60142005F07FFF2F4B72
:104910004FF0FF321A60254B00221A60254B2D22E2
:104920001A80642005F072FF36E023492148FBF726
:104930004FFC0346002B28D1214B1B782D2B24D86C
:10494000204B4FF47A721A601B491A48FBF740FC5F
:104950000346002B22D11A4B1B781E2B1ED81A4B54
:104960004FF000021A60FCF749FD142005F04EFFDD
:10497000164B4FF0FF321A60FCF75EFD0D4B2D22F7
:104980001A80642005F042FF08E00E4B4FF47A6273
:104990001A6004E000BF02E000BF00E000BF50204A
:1049A00005F034FF27E700BF1004002010000020AE
:1049B00048DE0008180400204CDE000824DE000851
:1049C0001400002004000020540400200C000020EB
:1049D00080B400AF72B600BF00BFFDE780B582B003
:1049E00000AF0023FB7126E0FB79503BDBB20021D6
:1049F000184600F02BF80021002000F027F80021D5
:104A0000102000F023F80023BB710DE0BA79FB7988
:104A10000D49D2000A4413441B780121184600F0C6
:104A200015F8BB790133BB7197F90630002BEDDA2D
:104A3000FB790133FB71FB79072BD5D900BF00BF90
:104A40000837BD4680BD00BF7004002080B584B02B
:104A500000AF03460A46FB711346BB71BB79002BBE
:104A600006D001224FF480711C4801F081FB05E063
:104A700000224FF48071194801F07AFB0023FB7388
:104A80001EE000222021154801F072FB97F9073043
:104A9000002B05DA01224021104801F069FB04E0F7
:104AA000002240210D4801F063FB012220210B4828
:104AB00001F05EFBFB795B00FB71FB7B0133FB7359
:104AC000FB7B072BDDD901224FF48071034801F0F5
:104AD0004FFB00BF1037BD4680BD00BF0010024035
:104AE00080B582B000AF0023FB7114E00023BB71DE
:104AF0000AE0BA79FB790C49D2000A441344002237
:104B00001A70BB790133BB7197F90630002BF0DACC
:104B1000FB790133FB71FB79072BE7D9FFF75EFFC8
:104B200000BF0837BD4680BD7004002080B485B04A
:104B300000AF0346FB710B46BB7113467B7100232C
:104B4000FB7397F90730002B41DBBB793F2B3ED835
:104B5000BB79DB08DBB2C3F10703BB73BB7903F09E
:104B600007037B737B7BC3F10703012202FA03F384
:104B7000FB737B79002B12D0FA79BB7B1749D200EB
:104B80000A4413441878FA79BB7BF97B0143C8B215
:104B90001249D2000A44134402461A7018E0FA7906
:104BA000BB7B0E49D2000A4413441B785AB297F9D2
:104BB0000F30DB435BB2134059B2FA79BB7BC8B20A
:104BC0000649D2000A44134402461A7000E000BFAE
:104BD0001437BD465DF8047B704700BF70040020A9
:104BE00090B585B000AF0446084611461A462346E4
:104BF000FB710346BB710B467B7113463B71BB795E
:104C00003B737B79203B7B710023BB734DE03B7989
:104C10000C2B0BD17A79B97B284813465B001344DF
:104C20009B0003440B441B78FB7307E07A79BB7B42
:104C3000234912010A4413441B78FB7300237B733E
:104C40002DE097F90F30002B07DA97F82020B9797B
:104C5000FB791846FFF76AFF0CE097F82030002B2D
:104C60000CBF01230023DBB21A46B979FB79184641
:104C7000FFF75CFFFB7B5B00FB73BB790133BB7110
:104C8000BA793B7BD21A3B799A4205D13B7BBB7107
:104C9000FB790133FB7105E07B7B01337B737B7B0D
:104CA000072BCED9BB7B0133BB73BA7B3B799A42CE
:104CB000ADD300BF00BF1437BD4690BDECDF000888
:104CC00060E4000880B584B002AF03463A60FB712F
:104CD0000B46BB711FE0FB797A2B04D90023FB71D3
:104CE000BB791033BB71BB793A2B05D90023FB711B
:104CF000FB79BB71FFF7F4FE3B681A78B979F87954
:104D0000012300930C23FFF76BFFFB790833FB7142
:104D10003B6801333B603B681B78002BDBD100BF55
:104D200000BF0837BD4680BD80B500AF02F0B8FABD
:104D3000414B1B6F404A23F0010313673E4B1B6F2F
:104D40003D4A23F00403136702F0BEFA00228021DB
:104D50003A4801F00DFA642000F044FC0122802161
:104D6000364801F005FA0021AE20FFF76FFE002162
:104D7000D520FFF76BFE00215020FFF767FE0021D2
:104D8000A820FFF763FE00213F20FFF75FFE002110
:104D9000D320FFF75BFE00210020FFF757FE002124
:104DA0004020FFF753FE00218D20FFF74FFE00212A
:104DB0001420FFF74BFE00212020FFF747FE0021C3
:104DC0000220FFF743FE0021A120FFF73FFE002154
:104DD000C020FFF73BFE0021DA20FFF737FE00215D
:104DE0001220FFF733FE00218120FFF72FFE002164
:104DF000EF20FFF72BFE0021D920FFF727FE00212F
:104E0000F120FFF723FE0021DB20FFF71FFE00212A
:104E10003020FFF71BFE0021A420FFF717FE002122
:104E2000A620FFF713FE0021AF20FFF70FFEFFF7CC
:104E300057FE00BF80BD00BF003802400010024096
:104E400080B582B000AF00237B60124B5B6C114ACF
:104E500043F4804353640F4B5B6C03F480437B60EB
:104E60007B6800233B600B4B1B6C0A4A43F080536A
:104E70001364084B1B6C03F080533B603B680022BB
:104E80000F216FF0010000F00EFF00BF0837BD4694
:104E900080BD00BF0038024080B58CB000AF7860A4
:104EA00007F11C0300221A605A609A60DA601A61E6
:104EB0007B681B682E4A934228D10023BB612D4B8F
:104EC0005B6C2C4A43F4007353642A4B5B6C03F411
:104ED0000073BB61BB6900237B61264B1B6B254ABA
:104EE00043F004031363234B1B6B03F004037B6148
:104EF0007B690123FB6103233B6200237B6207F193
:104F00001C0319461C4800F097FF2CE07B681B68C7
:104F10001A4A934227D100233B61164B5B6C154A1A
:104F200043F480635364134B5B6C03F480633B6115
:104F30003B690023FB600F4B1B6B0E4A43F00403DD
:104F400013630C4B1B6B03F00403FB60FB68022331
:104F5000FB6103233B6200237B6207F11C031946BC
:104F6000054800F069FF00BF3037BD4680BD00BF77
:104F700000210140003802400008024000220140A8
:104F800080B58AB000AF786007F1140300221A6080
:104F90005A609A60DA601A617B681B68194A93420A
:104FA0002CD100233B61184B1B6B174A43F00203C3
:104FB0001363154B1B6B03F002033B613B694FF41A
:104FC00040737B611223BB610023FB6103233B62BF
:104FD00004237B6207F1140319460C4800F02CFFF0
:104FE0000023FB60084B1B6C074A43F40013136457
:104FF000054B1B6C03F40013FB60FB6800BF2837F4
:10500000BD4680BD0054004000380240000402400C
:1050100080B58CB000AF786007F11C0300221A60E5
:105020005A609A60DA601A617B681B68414A934251
:105030000ED10023BB61404B5B6C3F4A43F0010340
:1050400053643D4B5B6C03F00103BB61BB696CE0D7
:105050007B681B68394A934235D100237B61364B0C
:105060001B6C354A43F004031364334B1B6C03F091
:1050700004037B617B6900233B612F4B1B6B2E4A32
:1050800043F0080313632C4B1B6B03F008033B61D5
:105090003B694FF48053FB6102233B6200237B6238
:1050A0000023BB620223FB6207F11C03194624485C
:1050B00000F0C2FE002205211E2000F0F4FD1E209B
:1050C00000F00DFE31E07B681B681E4A93422CD134
:1050D0000023FB60184B5B6C174A43F002035364D8
:1050E000154B5B6C03F00203FB60FB680023BB60A5
:1050F000114B1B6B104A43F0040313630E4B1B6BE5
:1051000003F00403BB60BB684FF41073FB61022320
:105110003B6200237B620023BB620323FB6207F137
:105120001C031946084800F087FE00BF3037BD4613
:1051300080BD00BF00000140003802400008004070
:10514000000C0240000401400008024080B58CB011
:1051500000AF786007F11C0300221A605A609A6061
:10516000DA601A617B681B68B3F1804F4BD1002372
:10517000BB613F4B1B6C3E4A43F0010313643C4B45
:105180001B6C03F00103BB61BB6900237B61384BDF
:105190001B6B374A43F001031363354B1B6B03F062
:1051A00001037B617B6900233B61314B1B6B304A00
:1051B00043F0020313632E4B1B6B03F002033B61AE
:1051C0003B694FF40043FB6102233B6200237B6297
:1051D0000023BB620123FB6207F11C03194625482B
:1051E00000F02AFE0823FB6102233B6200237B625E
:1051F0000023BB620123FB6207F11C0319461E4812
:1052000000F01AFE30E07B681B681C4A93422BD1E9
:105210000023FB60164B1B6C154A43F00803136414
:10522000134B1B6C03F00803FB60FB680023BB609F
:105230000F4B1B6B0E4A43F0010313630C4B1B6BAC
:1052400003F00103BB60BB680323FB6102233B62E5
:1052500000237B620023BB620223FB6207F11C0375
:105260001946044800F0E8FD00BF3037BD4680BD58
:10527000003802400000024000040240000C0040E0
:1052800080B588B000AF786007F10C0300221A6087
:105290005A609A60DA601A617B681B68124A93420E
:1052A0001ED10023BB60114B1B6B104A43F010034F
:1052B00013630E4B1B6B03F01003BB60BB684FF412
:1052C0008043FB6002233B6100237B610023BB61C1
:1052D0000123FB6107F10C031946054800F0ACFD02
:1052E00000BF2037BD4680BD0000014000380240AD
:1052F0000010024080B58AB000AF786007F1140357
:1053000000221A605A609A60DA601A617B681B6832
:105310001D4A934234D100233B611C4B1B6C1B4A3A
:1053200043F480231364194B1B6C03F480233B610B
:105330003B690023FB60154B1B6B144A43F00403CD
:105340001363124B1B6B03F00403FB60FB684FF409
:1053500040637B610223BB610023FB6103233B624B
:1053600007237B6207F114031946094800F064FD26
:1053700000220521272000F096FC272000F0AFFC3A
:1053800000BF2837BD4680BD0048004000380240BD
:105390000008024080B400AF00BFFDE780B400AF5A
:1053A00000BFFDE780B400AF00BFFDE780B400AFF1
:1053B00000BFFDE780B400AF00BFFDE780B400AFE1
:1053C00000BFBD465DF8047B704780B500AF00F0BC
:1053D000E9F806F0F1FE0346012B01D007F0ECFCE2
:1053E00000BF80BD80B500AF4FF4807000F0F4FEC8
:1053F00000BF80BD80B500AF024802F0F7FF00BFDC
:1054000080BD00BF1402002080B500AF024804F048
:1054100097F900BF80BD00BFEC02002080B586B0C8
:1054200000AF7860144A154BD31A7B617B693B61EE
:10543000134B1B68002B02D1114B124A1A60104B00
:105440001A687B6813443A699A4207D207F070FFE2
:1054500003460C221A604FF0FF3309E0084B1B682B
:10546000FB60074B1A687B681344054A1360FB68AE
:1054700018461837BD4680BD000002200004000019
:10548000700800201053002080B400AF064BD3F802
:105490008830054A43F47003C2F8883000BFBD4627
:1054A0005DF8047B704700BF00ED00E0DFF834D00A
:1054B0000D480E490E4A002302E0D458C45004336C
:1054C000C4188C42F9D30B4A0B4C002301E0136043
:1054D0000432A242FBD3FFF7D7FF07F02FFFFCF700
:1054E00085FA7047000002200000002078000020AC
:1054F000ACEA00087800002010530020FEE700000E
:1055000080B500AF0E4B1B680D4A43F40073136067
:105510000B4B1B680A4A43F480631360084B1B68FB
:10552000074A43F480731360032000F0B1FB0F209F
:1055300000F008F8FFF784FC0023184680BD00BF88
:10554000003C024080B582B000AF7860124B1A6810
:10555000124B1B7819464FF47A73B3FBF1F3B2FB8D
:10556000F3F3184600F0C9FB0346002B01D00123DA
:105570000EE07B680F2B0AD8002279684FF0FF30CD
:1055800000F091FB064A7B681360002300E00123D2
:1055900018460837BD4680BD1800002020000020B6
:1055A0001C00002080B400AF064B1B781A46064B47
:1055B0001B681344044A136000BFBD465DF8047BBA
:1055C000704700BF200000207408002080B400AFA6
:1055D000034B1B681846BD465DF8047B704700BF4F
:1055E0007408002080B584B000AF7860FFF7EEFF4C
:1055F000B8607B68FB60FB68B3F1FF3F05D00A4BE6
:105600001B781A46FB681344FB6000BFFFF7DEFF00
:105610000246BB68D31AFA689A42F7D800BF00BFA7
:105620001037BD4680BD00BF2000002080B584B08B
:1056300000AF78600023FB737B68002B01D101234E
:1056400033E07B681B6C002B09D17868FFF724FCE2
:105650007B6800225A647B68002283F83C207B68C8
:105660001B6C03F01003002B18D17B681B6C23F418
:10567000885323F0020343F002027B681A647868BF
:1056800000F03AF97B6800225A647B681B6C23F0B7
:10569000030343F001027B681A6401E00123FB73FA
:1056A0007B68002283F83C20FB7B18461037BD4600
:1056B00080BD000080B485B000AF78603960002301
:1056C000BB607B6893F83C30012B01D1022305E1DC
:1056D0007B68012283F83C203B681B68092B25D995
:1056E0007B681B68D9683B681B689BB21A461346E7
:1056F0005B0013441E3B072202FA03F3DA437B6884
:105700001B680A40DA607B681B68D9683B689A6846
:105710003B681B689BB2184603465B0003441E3B74
:105720009A407B681B680A43DA6022E07B681B684A
:1057300019693B681B689BB21A4613465B00134409
:10574000072202FA03F3DA437B681B680A401A61F6
:105750007B681B6819693B689A683B681B689BB249
:10576000184603465B0003449A407B681B680A4363
:105770001A613B685B68062B24D87B681B68596BF1
:105780003B685A6813469B001344053B1F2202FAEC
:1057900003F3DA437B681B680A405A637B681B6823
:1057A000596B3B681B689BB218463B685A681346A6
:1057B0009B001344053B00FA03F27B681B680A4315
:1057C0005A634CE03B685B680C2B24D87B681B68F1
:1057D000196B3B685A6813469B001344233B1F22F6
:1057E00002FA03F3DA437B681B680A401A637B689A
:1057F0001B68196B3B681B689BB218463B685A686C
:1058000013469B001344233B00FA03F27B681B689A
:105810000A431A6323E07B681B68D96A3B685A68AD
:1058200013469B001344413B1F2202FA03F3DA4361
:105830007B681B680A40DA627B681B68D96A3B6830
:105840001B689BB218463B685A6813469B0013447A
:10585000413B00FA03F27B681B680A43DA62224B81
:10586000FB607B681B68214A934209D13B681B6837
:10587000122B05D1FB685B6843F48002FB685A6019
:105880007B681B68194A934223D13B681B68102B25
:1058900003D03B681B68112B1BD1FB685B6843F48A
:1058A0000002FB685A603B681B68102B11D1104B3B
:1058B0001B68104AA2FB03239A0C13469B00134457
:1058C0005B00BB6002E0BB68013BBB60BB68002BB8
:1058D000F9D17B68002283F83C2000231846143756
:1058E000BD465DF8047B7047002301400020014065
:1058F0001800002083DE1B4380B485B000AF7860C1
:10590000794BFB60FB685B6823F44032FB685A60AC
:10591000FB685A687B685B681A43FB685A607B685F
:105920001B685A687B681B6822F480725A607B6827
:105930001B6859687B681B691A027B681B680A43ED
:105940005A607B681B685A687B681B6822F040724B
:105950005A607B681B6859687B689A687B681B681B
:105960000A435A607B681B689A687B681B6822F44C
:1059700000629A607B681B6899687B68DA687B685C
:105980001B680A439A607B689B6A584A934222D0FC
:105990007B681B689A687B681B6822F070629A605B
:1059A0007B681B6899687B689A6A7B681B680A43F6
:1059B0009A607B681B689A687B681B6822F040527B
:1059C0009A607B681B6899687B68DA6A7B681B68E9
:1059D0000A439A600FE07B681B689A687B681B68C3
:1059E00022F070629A607B681B689A687B681B680B
:1059F00022F040529A607B681B689A687B681B683B
:105A000022F002029A607B681B6899687B681B7EA3
:105A10005A007B681B680A439A607B6893F82030C1
:105A2000002B1BD07B681B685A687B681B6842F49C
:105A300000625A607B681B685A687B681B6822F4A6
:105A400060425A607B681B6859687B685B6A013BEF
:105A50005A037B681B680A435A6007E07B681B682F
:105A60005A687B681B6822F400625A607B681B6876
:105A7000DA6A7B681B6822F47002DA627B681B6852
:105A8000D96A7B68DB69013B1A057B681B680A439E
:105A9000DA627B681B689A687B681B6822F4007274
:105AA0009A607B681B6899687B6893F830305A026B
:105AB0007B681B680A439A607B681B689A687B68EE
:105AC0001B6822F480629A607B681B6899687B6817
:105AD0005B699A027B681B680A439A6000BF1437AF
